{
  "contractName": "MedicalRecords",
  "abi": [
    {
      "constant": false,
      "inputs": [
        {
          "internalType": "uint256",
          "name": "_ID",
          "type": "uint256"
        },
        {
          "internalType": "string",
          "name": "_Name",
          "type": "string"
        },
        {
          "internalType": "uint256",
          "name": "_Age",
          "type": "uint256"
        }
      ],
      "name": "registerPatient",
      "outputs": [],
      "payable": false,
      "stateMutability": "nonpayable",
      "type": "function"
    },
    {
      "constant": false,
      "inputs": [
        {
          "internalType": "uint256",
          "name": "_ID",
          "type": "uint256"
        },
        {
          "internalType": "string",
          "name": "_Name",
          "type": "string"
        },
        {
          "internalType": "uint256",
          "name": "_Age",
          "type": "uint256"
        }
      ],
      "name": "registerDoctor",
      "outputs": [],
      "payable": false,
      "stateMutability": "nonpayable",
      "type": "function"
    },
    {
      "constant": false,
      "inputs": [
        {
          "internalType": "address",
          "name": "_doctor",
          "type": "address"
        },
        {
          "internalType": "bytes32",
          "name": "_report",
          "type": "bytes32"
        }
      ],
      "name": "saveReport",
      "outputs": [],
      "payable": false,
      "stateMutability": "nonpayable",
      "type": "function"
    },
    {
      "constant": false,
      "inputs": [
        {
          "internalType": "address",
          "name": "_doctor",
          "type": "address"
        },
        {
          "internalType": "bytes32",
          "name": "_report",
          "type": "bytes32"
        }
      ],
      "name": "givePermission",
      "outputs": [],
      "payable": false,
      "stateMutability": "nonpayable",
      "type": "function"
    },
    {
      "constant": true,
      "inputs": [
        {
          "internalType": "address",
          "name": "_patient",
          "type": "address"
        }
      ],
      "name": "getPatientDetails",
      "outputs": [
        {
          "internalType": "uint256",
          "name": "",
          "type": "uint256"
        },
        {
          "internalType": "string",
          "name": "",
          "type": "string"
        },
        {
          "internalType": "uint256",
          "name": "",
          "type": "uint256"
        }
      ],
      "payable": false,
      "stateMutability": "view",
      "type": "function"
    },
    {
      "constant": true,
      "inputs": [],
      "name": "getPatientReports",
      "outputs": [
        {
          "internalType": "bytes32[]",
          "name": "",
          "type": "bytes32[]"
        }
      ],
      "payable": false,
      "stateMutability": "view",
      "type": "function"
    },
    {
      "constant": true,
      "inputs": [
        {
          "internalType": "bytes32",
          "name": "_report",
          "type": "bytes32"
        }
      ],
      "name": "getPatientReportsToDoctors",
      "outputs": [
        {
          "internalType": "address[]",
          "name": "",
          "type": "address[]"
        }
      ],
      "payable": false,
      "stateMutability": "view",
      "type": "function"
    },
    {
      "constant": true,
      "inputs": [
        {
          "internalType": "address",
          "name": "_doctor",
          "type": "address"
        }
      ],
      "name": "getDoctorDetails",
      "outputs": [
        {
          "internalType": "uint256",
          "name": "",
          "type": "uint256"
        },
        {
          "internalType": "string",
          "name": "",
          "type": "string"
        },
        {
          "internalType": "uint256",
          "name": "",
          "type": "uint256"
        }
      ],
      "payable": false,
      "stateMutability": "view",
      "type": "function"
    },
    {
      "constant": true,
      "inputs": [],
      "name": "getDoctorPatients",
      "outputs": [
        {
          "internalType": "address[]",
          "name": "",
          "type": "address[]"
        }
      ],
      "payable": false,
      "stateMutability": "view",
      "type": "function"
    },
    {
      "constant": true,
      "inputs": [
        {
          "internalType": "address",
          "name": "_patient",
          "type": "address"
        }
      ],
      "name": "getFilesOfPatient",
      "outputs": [
        {
          "internalType": "bytes32[]",
          "name": "",
          "type": "bytes32[]"
        }
      ],
      "payable": false,
      "stateMutability": "view",
      "type": "function"
    }
  ],
  "bytecode": "0x608060405234801561001057600080fd5b506125b1806100206000396000f3fe608060405234801561001057600080fd5b506004361061009e5760003560e01c80638b145ec8116100665780638b145ec8146103bc578063b20519071461041b578063bab90dbd14610469578063d277049a14610534578063efe2ccc1146105825761009e565b806319691bc0146100a3578063283a795f1461017257806355e5ad911461020b5780635cae38bd1461028e57806389e207011461035d575b600080fd5b610170600480360360608110156100b957600080fd5b8101908080359060200190929190803590602001906401000000008111156100e057600080fd5b8201836020820111156100f257600080fd5b8035906020019184600183028401116401000000008311171561011457600080fd5b91908080601f016020809104026020016040519081016040528093929190818152602001838380828437600081840152601f19601f8201169050808301925050505050505091929192908035906020019092919050505061064d565b005b6101b46004803603602081101561018857600080fd5b81019080803573ffffffffffffffffffffffffffffffffffffffff169060200190929190505050610a5e565b6040518080602001828103825283818151815260200191508051906020019060200280838360005b838110156101f75780820151818401526020810190506101dc565b505050509050019250505060405180910390f35b6102376004803603602081101561022157600080fd5b8101908080359060200190929190505050610d55565b6040518080602001828103825283818151815260200191508051906020019060200280838360005b8381101561027a57808201518184015260208101905061025f565b505050509050019250505060405180910390f35b61035b600480360360608110156102a457600080fd5b8101908080359060200190929190803590602001906401000000008111156102cb57600080fd5b8201836020820111156102dd57600080fd5b803590602001918460018302840111640100000000831117156102ff57600080fd5b91908080601f016020809104026020016040519081016040528093929190818152602001838380828437600081840152601f19601f82011690508083019250505050505050919291929080359060200190929190505050610eed565b005b610365611302565b6040518080602001828103825283818151815260200191508051906020019060200280838360005b838110156103a857808201518184015260208101905061038d565b505050509050019250505060405180910390f35b6103c4611451565b6040518080602001828103825283818151815260200191508051906020019060200280838360005b838110156104075780820151818401526020810190506103ec565b505050509050019250505060405180910390f35b6104676004803603604081101561043157600080fd5b81019080803573ffffffffffffffffffffffffffffffffffffffff169060200190929190803590602001909291905050506115d8565b005b6104ab6004803603602081101561047f57600080fd5b81019080803573ffffffffffffffffffffffffffffffffffffffff169060200190929190505050611ab5565b6040518084815260200180602001838152602001828103825284818151815260200191508051906020019080838360005b838110156104f75780820151818401526020810190506104dc565b50505050905090810190601f1680156105245780820380516001836020036101000a031916815260200191505b5094505050505060405180910390f35b6105806004803603604081101561054a57600080fd5b81019080803573ffffffffffffffffffffffffffffffffffffffff16906020019092919080359060200190929190505050611ce4565b005b6105c46004803603602081101561059857600080fd5b81019080803573ffffffffffffffffffffffffffffffffffffffff169060200190929190505050612173565b6040518084815260200180602001838152602001828103825284818151815260200191508051906020019080838360005b838110156106105780820151818401526020810190506105f5565b50505050905090810190601f16801561063d5780820380516001836020036101000a031916815260200191505b5094505050505060405180910390f35b60008060003373ffffffffffffffffffffffffffffffffffffffff1673ffffffffffffffffffffffffffffffffffffffff16815260200190815260200160002060000154146106e7576040517f08c379a00000000000000000000000000000000000000000000000000000000081526004018080602001828103825260288152602001806125006028913960400191505060405180910390fd5b600015156001600085815260200190815260200160002060009054906101000a900460ff16151514610781576040517f08c379a00000000000000000000000000000000000000000000000000000000081526004018080602001828103825260108152602001807f494420416c72656164792054616b656e0000000000000000000000000000000081525060200191505060405180910390fd5b60008314156107f8576040517f08c379a000000000000000000000000000000000000000000000000000000000815260040180806020018281038252600a8152602001807f496e76616c69642049440000000000000000000000000000000000000000000081525060200191505060405180910390fd5b60405160200180600001905060405160208183030381529060405280519060200120826040516020018082805190602001908083835b60208310610851578051825260208201915060208101905060208303925061082e565b6001836020036101000a038019825116818451168082178552505050505050905001915050604051602081830303815290604052805190602001201415610900576040517f08c379a000000000000000000000000000000000000000000000000000000000815260040180806020018281038252600c8152602001807f496e76616c6964206e616d65000000000000000000000000000000000000000081525060200191505060405180910390fd5b6000811415610977576040517f08c379a000000000000000000000000000000000000000000000000000000000815260040180806020018281038252600b8152602001807f496e76616c69642041676500000000000000000000000000000000000000000081525060200191505060405180910390fd5b826000803373ffffffffffffffffffffffffffffffffffffffff1673ffffffffffffffffffffffffffffffffffffffff16815260200190815260200160002060000181905550816000803373ffffffffffffffffffffffffffffffffffffffff1673ffffffffffffffffffffffffffffffffffffffff1681526020019081526020016000206001019080519060200190610a1292919061239e565b50806000803373ffffffffffffffffffffffffffffffffffffffff1673ffffffffffffffffffffffffffffffffffffffff16815260200190815260200160002060020181905550505050565b60606000600260003373ffffffffffffffffffffffffffffffffffffffff1673ffffffffffffffffffffffffffffffffffffffff168152602001908152602001600020600001541415610afc576040517f08c379a00000000000000000000000000000000000000000000000000000000081526004018080602001828103825260238152602001806124dd6023913960400191505060405180910390fd5b60008060008473ffffffffffffffffffffffffffffffffffffffff1673ffffffffffffffffffffffffffffffffffffffff168152602001908152602001600020600001541415610b97576040517f08c379a00000000000000000000000000000000000000000000000000000000081526004018080602001828103825260318152602001806125286031913960400191505060405180910390fd5b60011515600260003373ffffffffffffffffffffffffffffffffffffffff1673ffffffffffffffffffffffffffffffffffffffff16815260200190815260200160002060040160008473ffffffffffffffffffffffffffffffffffffffff1673ffffffffffffffffffffffffffffffffffffffff16815260200190815260200160002060009054906101000a900460ff16151514610c80576040517f08c379a00000000000000000000000000000000000000000000000000000000081526004018080602001828103825260428152602001806124446042913960600191505060405180910390fd5b600260003373ffffffffffffffffffffffffffffffffffffffff1673ffffffffffffffffffffffffffffffffffffffff16815260200190815260200160002060050160008373ffffffffffffffffffffffffffffffffffffffff1673ffffffffffffffffffffffffffffffffffffffff168152602001908152602001600020805480602002602001604051908101604052809291908181526020018280548015610d4957602002820191906000526020600020905b815481526020019060010190808311610d35575b50505050509050919050565b606060008060003373ffffffffffffffffffffffffffffffffffffffff1673ffffffffffffffffffffffffffffffffffffffff168152602001908152602001600020600001541415610e0f576040517f08c379a00000000000000000000000000000000000000000000000000000000081526004018080602001828103825260158152602001807f596f7520617265206e6f7420612070617469656e74000000000000000000000081525060200191505060405180910390fd5b6000803373ffffffffffffffffffffffffffffffffffffffff1673ffffffffffffffffffffffffffffffffffffffff1681526020019081526020016000206004016000838152602001908152602001600020805480602002602001604051908101604052809291908181526020018280548015610ee157602002820191906000526020600020905b8160009054906101000a900473ffffffffffffffffffffffffffffffffffffffff1673ffffffffffffffffffffffffffffffffffffffff1681526020019060010190808311610e97575b50505050509050919050565b6000600260003373ffffffffffffffffffffffffffffffffffffffff1673ffffffffffffffffffffffffffffffffffffffff1681526020019081526020016000206000015414610f88576040517f08c379a00000000000000000000000000000000000000000000000000000000081526004018080602001828103825260278152602001806124b66027913960400191505060405180910390fd5b600015156001600085815260200190815260200160002060009054906101000a900460ff16151514611022576040517f08c379a00000000000000000000000000000000000000000000000000000000081526004018080602001828103825260108152602001807f494420416c72656164792054616b656e0000000000000000000000000000000081525060200191505060405180910390fd5b6000831415611099576040517f08c379a000000000000000000000000000000000000000000000000000000000815260040180806020018281038252600a8152602001807f496e76616c69642049440000000000000000000000000000000000000000000081525060200191505060405180910390fd5b60405160200180600001905060405160208183030381529060405280519060200120826040516020018082805190602001908083835b602083106110f257805182526020820191506020810190506020830392506110cf565b6001836020036101000a0380198251168184511680821785525050505050509050019150506040516020818303038152906040528051906020012014156111a1576040517f08c379a000000000000000000000000000000000000000000000000000000000815260040180806020018281038252600c8152602001807f496e76616c6964206e616d65000000000000000000000000000000000000000081525060200191505060405180910390fd5b6000811415611218576040517f08c379a000000000000000000000000000000000000000000000000000000000815260040180806020018281038252600b8152602001807f496e76616c69642041676500000000000000000000000000000000000000000081525060200191505060405180910390fd5b82600260003373ffffffffffffffffffffffffffffffffffffffff1673ffffffffffffffffffffffffffffffffffffffff1681526020019081526020016000206000018190555081600260003373ffffffffffffffffffffffffffffffffffffffff1673ffffffffffffffffffffffffffffffffffffffff16815260200190815260200160002060010190805190602001906112b592919061239e565b5080600260003373ffffffffffffffffffffffffffffffffffffffff1673ffffffffffffffffffffffffffffffffffffffff16815260200190815260200160002060020181905550505050565b606060008060003373ffffffffffffffffffffffffffffffffffffffff1673ffffffffffffffffffffffffffffffffffffffff1681526020019081526020016000206000015414156113bc576040517f08c379a00000000000000000000000000000000000000000000000000000000081526004018080602001828103825260158152602001807f596f7520617265206e6f7420612070617469656e74000000000000000000000081525060200191505060405180910390fd5b6000803373ffffffffffffffffffffffffffffffffffffffff1673ffffffffffffffffffffffffffffffffffffffff16815260200190815260200160002060030180548060200260200160405190810160405280929190818152602001828054801561144757602002820191906000526020600020905b815481526020019060010190808311611433575b5050505050905090565b60606000600260003373ffffffffffffffffffffffffffffffffffffffff1673ffffffffffffffffffffffffffffffffffffffff16815260200190815260200160002060000154141561150c576040517f08c379a00000000000000000000000000000000000000000000000000000000081526004018080602001828103825260148152602001807f596f7520617265206e6f74206120646f63746f7200000000000000000000000081525060200191505060405180910390fd5b600260003373ffffffffffffffffffffffffffffffffffffffff1673ffffffffffffffffffffffffffffffffffffffff1681526020019081526020016000206003018054806020026020016040519081016040528092919081815260200182805480156115ce57602002820191906000526020600020905b8160009054906101000a900473ffffffffffffffffffffffffffffffffffffffff1673ffffffffffffffffffffffffffffffffffffffff1681526020019060010190808311611584575b5050505050905090565b60008060003373ffffffffffffffffffffffffffffffffffffffff1673ffffffffffffffffffffffffffffffffffffffff168152602001908152602001600020600001541415611673576040517f08c379a00000000000000000000000000000000000000000000000000000000081526004018080602001828103825260248152602001806125596024913960400191505060405180910390fd5b6000600260008473ffffffffffffffffffffffffffffffffffffffff1673ffffffffffffffffffffffffffffffffffffffff16815260200190815260200160002060000154141561170f576040517f08c379a00000000000000000000000000000000000000000000000000000000081526004018080602001828103825260308152602001806124866030913960400191505060405180910390fd5b6000803373ffffffffffffffffffffffffffffffffffffffff1673ffffffffffffffffffffffffffffffffffffffff1681526020019081526020016000206003018190806001815401808255809150509060018203906000526020600020016000909192909190915055506000803373ffffffffffffffffffffffffffffffffffffffff1673ffffffffffffffffffffffffffffffffffffffff16815260200190815260200160002060040160008281526020019081526020016000208290806001815401808255809150509060018203906000526020600020016000909192909190916101000a81548173ffffffffffffffffffffffffffffffffffffffff021916908373ffffffffffffffffffffffffffffffffffffffff1602179055505060001515600260008473ffffffffffffffffffffffffffffffffffffffff1673ffffffffffffffffffffffffffffffffffffffff16815260200190815260200160002060040160003373ffffffffffffffffffffffffffffffffffffffff1673ffffffffffffffffffffffffffffffffffffffff16815260200190815260200160002060009054906101000a900460ff1615151415611a08576001600260008473ffffffffffffffffffffffffffffffffffffffff1673ffffffffffffffffffffffffffffffffffffffff16815260200190815260200160002060040160003373ffffffffffffffffffffffffffffffffffffffff1673ffffffffffffffffffffffffffffffffffffffff16815260200190815260200160002060006101000a81548160ff021916908315150217905550600260008373ffffffffffffffffffffffffffffffffffffffff1673ffffffffffffffffffffffffffffffffffffffff1681526020019081526020016000206003013390806001815401808255809150509060018203906000526020600020016000909192909190916101000a81548173ffffffffffffffffffffffffffffffffffffffff021916908373ffffffffffffffffffffffffffffffffffffffff160217905550505b600260008373ffffffffffffffffffffffffffffffffffffffff1673ffffffffffffffffffffffffffffffffffffffff16815260200190815260200160002060050160003373ffffffffffffffffffffffffffffffffffffffff1673ffffffffffffffffffffffffffffffffffffffff1681526020019081526020016000208190806001815401808255809150509060018203906000526020600020016000909192909190915055505050565b60006060600080600260008673ffffffffffffffffffffffffffffffffffffffff1673ffffffffffffffffffffffffffffffffffffffff168152602001908152602001600020600001541415611b73576040517f08c379a000000000000000000000000000000000000000000000000000000000815260040180806020018281038252601c8152602001807f546869732061646472657373206973206e6f74206120646f63746f720000000081525060200191505060405180910390fd5b600260008573ffffffffffffffffffffffffffffffffffffffff1673ffffffffffffffffffffffffffffffffffffffff16815260200190815260200160002060000154600260008673ffffffffffffffffffffffffffffffffffffffff1673ffffffffffffffffffffffffffffffffffffffff168152602001908152602001600020600101600260008773ffffffffffffffffffffffffffffffffffffffff1673ffffffffffffffffffffffffffffffffffffffff16815260200190815260200160002060020154818054600181600116156101000203166002900480601f016020809104026020016040519081016040528092919081815260200182805460018160011615610100020316600290048015611cd05780601f10611ca557610100808354040283529160200191611cd0565b820191906000526020600020905b815481529060010190602001808311611cb357829003601f168201915b505050505091509250925092509193909250565b60008060003373ffffffffffffffffffffffffffffffffffffffff1673ffffffffffffffffffffffffffffffffffffffff168152602001908152602001600020600001541415611d9c576040517f08c379a00000000000000000000000000000000000000000000000000000000081526004018080602001828103825260158152602001807f596f7520617265206e6f7420612070617469656e74000000000000000000000081525060200191505060405180910390fd5b6000600260008473ffffffffffffffffffffffffffffffffffffffff1673ffffffffffffffffffffffffffffffffffffffff168152602001908152602001600020600001541415611e38576040517f08c379a00000000000000000000000000000000000000000000000000000000081526004018080602001828103825260308152602001806124866030913960400191505060405180910390fd5b6000803373ffffffffffffffffffffffffffffffffffffffff1673ffffffffffffffffffffffffffffffffffffffff16815260200190815260200160002060040160008281526020019081526020016000208290806001815401808255809150509060018203906000526020600020016000909192909190916101000a81548173ffffffffffffffffffffffffffffffffffffffff021916908373ffffffffffffffffffffffffffffffffffffffff1602179055505060001515600260008473ffffffffffffffffffffffffffffffffffffffff1673ffffffffffffffffffffffffffffffffffffffff16815260200190815260200160002060040160003373ffffffffffffffffffffffffffffffffffffffff1673ffffffffffffffffffffffffffffffffffffffff16815260200190815260200160002060009054906101000a900460ff16151514156120c6576001600260008473ffffffffffffffffffffffffffffffffffffffff1673ffffffffffffffffffffffffffffffffffffffff16815260200190815260200160002060040160003373ffffffffffffffffffffffffffffffffffffffff1673ffffffffffffffffffffffffffffffffffffffff16815260200190815260200160002060006101000a81548160ff021916908315150217905550600260008373ffffffffffffffffffffffffffffffffffffffff1673ffffffffffffffffffffffffffffffffffffffff1681526020019081526020016000206003013390806001815401808255809150509060018203906000526020600020016000909192909190916101000a81548173ffffffffffffffffffffffffffffffffffffffff021916908373ffffffffffffffffffffffffffffffffffffffff160217905550505b600260008373ffffffffffffffffffffffffffffffffffffffff1673ffffffffffffffffffffffffffffffffffffffff16815260200190815260200160002060050160003373ffffffffffffffffffffffffffffffffffffffff1673ffffffffffffffffffffffffffffffffffffffff1681526020019081526020016000208190806001815401808255809150509060018203906000526020600020016000909192909190915055505050565b600060606000806000808673ffffffffffffffffffffffffffffffffffffffff1673ffffffffffffffffffffffffffffffffffffffff168152602001908152602001600020600001541415612230576040517f08c379a00000000000000000000000000000000000000000000000000000000081526004018080602001828103825260158152602001807f596f7520617265206e6f7420612070617469656e74000000000000000000000081525060200191505060405180910390fd5b6000808573ffffffffffffffffffffffffffffffffffffffff1673ffffffffffffffffffffffffffffffffffffffff168152602001908152602001600020600001546000808673ffffffffffffffffffffffffffffffffffffffff1673ffffffffffffffffffffffffffffffffffffffff1681526020019081526020016000206001016000808773ffffffffffffffffffffffffffffffffffffffff1673ffffffffffffffffffffffffffffffffffffffff16815260200190815260200160002060020154818054600181600116156101000203166002900480601f01602080910402602001604051908101604052809291908181526020018280546001816001161561010002031660029004801561238a5780601f1061235f5761010080835404028352916020019161238a565b820191906000526020600020905b81548152906001019060200180831161236d57829003601f168201915b505050505091509250925092509193909250565b828054600181600116156101000203166002900490600052602060002090601f016020900481019282601f106123df57805160ff191683800117855561240d565b8280016001018555821561240d579182015b8281111561240c5782518255916020019190600101906123f1565b5b50905061241a919061241e565b5090565b61244091905b8082111561243c576000816000905550600101612424565b5090565b9056fe596f7520617265206e6f7420617574686f72697a656420746f20686176652061636365737320746f207468652066696c6573206f6620746869732070617469656e7454686973206164647265737320686173206e6f74206265656e2072656769737465726564206173206120646f63746f72596f75206861766520616c72656164792072656769737465726564206173206120646f63746f72596f752068617665206e6f742072656769737465726564206173206120646f63746f72596f75206861766520616c7265616479207265676973746572656420617320612070617469656e7454686973206164647265737320686173206e6f74206265656e207265676973746572656420617320612070617469656e74596f752068617665206e6f74207265676973746572656420617320612070617469656e74a265627a7a7231582035c9ae30f27204ee9b4f9318d8b402854aec0bc1dc0f1dee9424fd7599e7735164736f6c63430005100032",
  "source": "pragma solidity >=0.4.22 <0.6.0;\n\ncontract MedicalRecords {\n    \n    struct Patient {\n        uint ID;\n        string Name;\n        uint Age;\n        bytes32[] reports;\n        mapping(bytes32=>address[]) reports_to_doctors;\n    }\n    \n    struct Doctor {\n        uint ID;\n        string Name;\n        uint Age;\n        address[] patients;\n        mapping(address=>bool) alreadyPatient;\n        mapping(address=>bytes32[]) patient_files;\n    }\n    \n    mapping(address=>Patient) patient;\n    mapping(uint=>bool) isIDTaken;\n    mapping(address=>Doctor) doctor;\n    \n    function registerPatient(uint _ID,string memory _Name, uint _Age) public{\n        require(patient[msg.sender].ID==0,\"You have already registered as a patient\");\n\n        require(isIDTaken[_ID]==false,\"ID Already Taken\");\n        \n        require(_ID!=0,\"Invalid ID\");\n        \n        require(keccak256(abi.encodePacked(_Name))!=keccak256(abi.encodePacked(\"\")),\"Invalid name\");\n        \n        require(_Age!=0,\"Invalid Age\");\n        \n        patient[msg.sender].ID = _ID;\n        \n        patient[msg.sender].Name = _Name;\n        \n        patient[msg.sender].Age = _Age;\n        \n    }    \n    \n    function registerDoctor(uint _ID,string memory _Name, uint _Age) public{\n        require(doctor[msg.sender].ID==0,\"You have already registered as a doctor\");\n\n        require(isIDTaken[_ID]==false,\"ID Already Taken\");\n        \n        require(_ID!=0,\"Invalid ID\");\n        \n        require(keccak256(abi.encodePacked(_Name))!=keccak256(abi.encodePacked(\"\")),\"Invalid name\");\n        \n        require(_Age!=0,\"Invalid Age\");\n        \n        doctor[msg.sender].ID = _ID;\n        \n        doctor[msg.sender].Name = _Name;\n        \n        doctor[msg.sender].Age = _Age;\n    } \n    \n    function saveReport(address _doctor, bytes32 _report) public {\n        require(patient[msg.sender].ID!=0,\"You have not registered as a patient\");\n        \n        require(doctor[_doctor].ID!=0,\"This address has not been registered as a doctor\");\n        \n        patient[msg.sender].reports.push(_report);\n        \n        patient[msg.sender].reports_to_doctors[_report].push(_doctor);\n        \n        if(doctor[_doctor].alreadyPatient[msg.sender]==false){\n            \n            doctor[_doctor].alreadyPatient[msg.sender] = true;\n            \n            doctor[_doctor].patients.push(msg.sender);\n        }\n        \n        \n        doctor[_doctor].patient_files[msg.sender].push(_report);\n    }\n    \n    function givePermission(address _doctor, bytes32 _report)  public {\n        require(patient[msg.sender].ID!=0,\"You are not a patient\");\n        \n        require(doctor[_doctor].ID!=0,\"This address has not been registered as a doctor\");\n        \n        patient[msg.sender].reports_to_doctors[_report].push(_doctor);\n        \n        if(doctor[_doctor].alreadyPatient[msg.sender]==false){\n            \n            doctor[_doctor].alreadyPatient[msg.sender] = true;\n            \n            doctor[_doctor].patients.push(msg.sender);\n        }\n        \n        doctor[_doctor].patient_files[msg.sender].push(_report);\n    }\n    \n        \n    function getPatientDetails(address _patient) public view returns(uint256,string memory,uint256){\n        \n        require(patient[_patient].ID!=0,\"You are not a patient\");\n        \n        return (patient[_patient].ID,patient[_patient].Name,patient[_patient].Age);\n    }\n\n    function getPatientReports() public view returns(bytes32[] memory) {\n\n        require(patient[msg.sender].ID!=0,\"You are not a patient\");\n\n        return patient[msg.sender].reports;\n    }\n    \n    function getPatientReportsToDoctors(bytes32 _report) public view returns(address[] memory){\n        \n        require(patient[msg.sender].ID!=0,\"You are not a patient\");\n        \n        return patient[msg.sender].reports_to_doctors[_report];\n        \n    }\n\n    function getDoctorDetails(address _doctor) public view returns(uint256,string memory,uint256){\n        \n        require(doctor[_doctor].ID!=0,\"This address is not a doctor\");\n        \n        return (doctor[_doctor].ID,doctor[_doctor].Name,doctor[_doctor].Age);\n    }\n\n    function getDoctorPatients() public view returns(address[] memory){\n        \n        require(doctor[msg.sender].ID!=0,\"You are not a doctor\");\n        \n        return doctor[msg.sender].patients;\n        \n    }\n    \n    function getFilesOfPatient(address _patient) public view returns(bytes32[] memory) {\n        require(doctor[msg.sender].ID!=0,\"You have not registered as a doctor\");\n        \n        require(patient[_patient].ID!=0,\"This address has not been registered as a patient\");\n        \n        require(doctor[msg.sender].alreadyPatient[_patient]==true,\"You are not authorized to have access to the files of this patient\");\n        \n        return doctor[msg.sender].patient_files[_patient];\n        \n    }\n    \n} ",
  "sourcePath": "/home/user/Documents/Blockchain projects/Internship/contracts/MedicalRecords.sol",
  "compiler": {
    "name": "solc",
    "version": "0.5.16+commit.9c3226ce.Emscripten.clang"
  },
  "schemaVersion": "3.0.23",
  "updatedAt": "2020-06-15T14:06:31.998Z",
  "devdoc": {
    "methods": {}
  },
  "userdoc": {
    "methods": {}
  }
}